S02200004131552046696E616C20506C6174666F726D2050726F6772616D2E73726563D4
S11300008DC10000B0C10000AEC10000ACC1000051
S1130010AAC10000A8C10000A6C10000A4C100003C
S1130020A2C10000A0C100009EC100009CC100004C
S11300309AC1000098C1000096C1000094C100005C
S113004092C1000090C100008EC100008CC100006C
S113005033C2000088C1000086C1000084C10000D2
S113006082C1000080C100007EC100007CC100008C
S11300707AC1000078C1000076C1000074C100009C
S113008072C1000070C100006EC100006CC10000AC
S11300906AC1000068C1000066C1000064C10000BC
S11300A062C1000060C100005EC100005CC10000CC
S11300B05AC1000058C1000056C1000054C10000DC
S11300C052C1000050C100004EC100004CC10000EC
S11300D04AC1000048C1000046C1000044C10000FC
S11300E042C1000040C100003EC100003CC100000C
S11300F03AC1000038C1000036C1000034C100001C
S113010032C1000030C100002EC100002CC100002B
S11301102AC1000028C1000026C1000024C100003B
S113012022C1000020C100001EC100001CC100004B
S11301301AC1000018C1000016C1000014C100005B
S113014012C1000010C100000EC10000A0C50000D3
S11301500AC1000008C1000006C1000004C100007B
S113016002C1000000C10000FEC00000FCC000008D
S1130170FAC00000F8C00000F6C00000F4C000009F
S1130180F2C00000F0C00000EEC00000ECC00000AF
S1130190EAC00000E8C00000E6C00000E4C00000BF
S11301A0E2C00000E0C00000DEC00000DCC00000CF
S11301B0DAC00000D8C00000D6C00000D4C00000DF
S11301C0D2C00000D0C00000CEC00000CCC00000EF
S11301D0CAC00000C8C00000C6C00000C4C00000FF
S11301E0C2C00000C0C00000BEC00000BCC000000F
S11301F0BAC00000B8C00000B6C0000005A84CCDCD
S1130200B2D44EB93836A9020C50B9918688083C4C
S1130210A6AAAA2ABE000000803F6E616E00696E25
S1130220660000407A10F35A00A0724E18090010BC
S1130230A5D4E80000E87648170000E40B54020057
S113024000CA9A3B000000E1F50500008096980082
S1130250000040420F000000A086010000001027AB
S113026000000000E803000000006400000000003B
S11302700A00000000000100000000002C76D8886D
S1130280DC674F0823DFC1DFAE59E1B1B796E5E380
S1130290E453C63AE651997696E8E6C28426EB8999
S11302A08C9B62ED407C6FFCEFBC9C9F40F2BAA536
S11302B06FA5F490055A2AF75C936B6CF9676DC1CE
S11302C01BFCE0E40D47FEF520E6B500D0ED902ED2
S11302D00300943577050080841E080000204E0A30
S11302E0000000C80C333333330F986E128311416E
S11302F0EF8D2114893BE65516CFFEE6DB18D18439
S11303004B381BF77C1D901DA4BBE424203284725F
S11303105E228100C9F124ECA1E53D2711241FBE12
S1130320CFEFCDBFDFE3DEBF00E00CBF18BE19BEC8
S11303301ABE1BBE10E2A0E0B0E2EEE5F4E200E07B
S11303400BBF02C007900D92AE37B107D9F71BBEA1
S113035021E2AEE7B0E201C01D92A030B207E1F79E
S1130360ADD50C942D124CCECF93C82F8A3011F4F6
S11303708DE0FADFE0EAF8E0918195FFFDCFC093CC
S1130380A00880E090E0CF91089520E030E040E4C0
S113039051E40E94A30A20E030EE47EC54E40E94AA
S11303A0450C6093D8207093D9208093DA209093E1
S11303B0DB206091D8207091D9208091DA2090912F
S11303C0DB2020E030E0A9010E949F0A88230CF082
S11303D042C0E0EAF6E088E0858384E08683809189
S11303E0D8209091D920A091DA20B091DB20B05888
S11303F08093D8209093D920A093DA20B093DB2067
S11304006091D8207091D9208091DA209091DB20DE
S113041020E030EE47EC54E40E94410C882364F061
S113042080E090EEA7ECB4E48093D8209093D92098
S1130430A093DA20B093DB206091D8207091D9206A
S11304408091DA209091DB200E94100BE0E4FBE025
S113045060A771A70895E0EAF6E084E0858388E068
S113046086836091D8207091D9208091DA20909170
S1130470DB2020E030EE47EC54E40E94410C88235A
S113048064F080E090EEA7ECB4E48093D8209093DD
S1130490D920A093DA20B093DB206091D82070910A
S11304A0D9208091DA209091DB200E94100BE0E4A7
S11304B0FBE060A771A708951F920F920FB60F92E9
S11304C0112408B60F9218BE09B60F9219BE0AB6C7
S11304D00F921ABE0BB60F921BBE4F925F926F9291
S11304E07F928F929F92AF92BF92CF92DF92EF92C0
S11304F0FF922F933F934F935F936F937F938F93C9
S11305009F93AF93BF93EF93FF93CF93DF93CDB7B5
S1130510DEB76497CDBFDEBF80E4E0E6F6E0878314
S11305206091EB207091EC208091ED209091EE2071
S11305302091EF203091F0204091F1205091F22051
S1130540FED718160CF412C38091852081112FC098
S113055060918C2070918D2080918E2090918F20BD
S1130560C090EB20D090EC20E090ED20F090EE20B5
S11305702BED3FE049EC50E40E94450CA7019601A5
S11305800E94450C0E94A80C20919620309197203F
S113059040919820509199200E94450C6093E72047
S11305A07093E8208093E9209093EA201DC0809105
S11305B08520813089F48091962090919720A09194
S11305C09820B09199208093E7209093E820A093FD
S11305D0E920B093EA2008C01092DC201092DD20BC
S11305E01092DE201092DF206091EB207091EC20BD
S11305F08091ED209091EE2020E030E0A9019FD77A
S1130600811110C0E0E4F9E080A191A18093D6208B
S11306109093D7208091D6209091D7208093D62094
S11306209093D720E0E4F9E080A191A18093F82091
S11306309093F9208091F8209091F920992324F443
S11306401092F8201092F9208091F8209091F920CE
S11306508115904234F08FEF9FE18093F8209093BE
S1130660F9206091F8207091F9208091D620909122
S1130670D720C090C220D090C320E090C420F09036
S1130680C520681B790B882777FD8095982FF6D7AE
S113069020E038EF4FEF55E456D7A7019601EBD68B
S11306A020E030E044EB53E40E94450C6093D220F8
S11306B07093D3208093D4209093D5206091D2203E
S11306C07091D3208091D4209091D5202091C7207F
S11306D03091C8204091C9205091CA20CBD6609354
S11306E0BA207093BB208093BC209093BD2060916E
S11306F0BA207091BB208091BC209091BD202091A4
S11307009B2030919C2040919D2050919E201BD78E
S11307106093B6207093B7208093B8209093B9204B
S11307206091E7207091E8208091E9209091EA207F
S11307302091D2203091D3204091D4205091D520C3
S113074099D66093A7207093A8208093A9209093B2
S1130750AA20609101207091022080910320909141
S1130760042040909B2050909C2060909D2070908D
S11307709E2080909F209090A020A090A120B090D7
S1130780A2202091A3203091A4204091A520509133
S1130790A62029833A834B835C83209101203091E6
S11307A0022040910320509104202D833E834F83E7
S11307B0588720919B2030919C2040919D205091FE
S11307C09E2029873A874B875C8720919F20309110
S11307D0A0204091A1205091A2202D873E874F87D1
S11307E0588B2091A7203091A8204091A9205091A6
S11307F0AA20298B3A8B4B8B5C8BC090AB20D0907A
S1130800AC20E090AD20F090AE2020E030E040E05D
S11308105FE30E94450CA30192010E94450CA501CF
S1130820940128D629813A814B815C810E94450C30
S11308304B015C0120E030E040E05FE36D817E81AC
S11308408F8198850E94450C29853A854B855C8566
S11308500E94450C2D853E854F8558890CD62989E3
S11308603A894B895C890E94450C9B01AC01C50106
S1130870B40101D6A7019601FED56093AF20709311
S1130880B0208093B1209093B2208091AF209091BA
S1130890B020A091B120B091B2208093DC2090933D
S11308A0DD20A093DE20B093DF206091C220709100
S11308B0C3208091C4209091C5202091BE20309106
S11308C0BF204091C0205091C12039D68823A9F07F
S11308D06091E2207091E3208091E4209091E520E2
S11308E020E030E040E85FE3C6D56093E2207093F7
S11308F0E3208093E4209093E5206091E7207091B9
S1130900E8208091E9209091EA2020E030E0A901DC
S1130910B8D788231CF01092842011C06091E7207E
S11309207091E8208091E9209091EA2020E030E065
S1130930A90105D688231CF480E880938420609163
S1130940D2207091D3208091D4209091D52020E0A2
S113095030E0A90196D7882324F080E18093D12048
S113096011C06091D2207091D3208091D4209091B5
S1130970D52020E030E0A901E2D588231CF480E9E9
S11309808093D1208091E7209091E820A091E920E4
S1130990B091EA20BF778093802090938120A09328
S11309A08220B09383206091802070918120809177
S11309B08220909183209DD62ED660937F20C09074
S11309C08020D0908120E0908220F090832060915C
S11309D07F20772767FD7095872F972F4FD69B0130
S11309E0AC01C701B60146D520E030E048EC52E442
S11309F04CD77FD610D660937E208091D2209091E0
S1130A00D320A091D420B091D520BF778093CD205E
S1130A109093CE20A093CF20B093D0206091CD208E
S1130A207091CE208091CF209091D02062D6F3D5C2
S1130A306093CC20C090CD20D090CE20E090CF20E9
S1130A40F090D0206091CC20772767FD7095872F98
S1130A50972F14D69B01AC01C701B6010BD520E03A
S1130A6030E048EC52E411D744D6D5D56093CB207E
S1130A7080E090E0E0ECF8E0A0E0B6E030E11816A9
S1130A80190664F04091842020917F20242B209328
S1130A90B32020917E202093B4200BC04091D1201C
S1130AA02091CC20242B2093B3202091CB20209381
S1130AB0B4202091B320238316963C931697228169
S1130AC02223ECF715963C93159723812093E62077
S1130AD02091B420238322812223ECF723812093C5
S1130AE0B52001968230910551F68091D2209091E3
S1130AF0D320A091D420B091D5208093C720909387
S1130B00C820A093C920B093CA208091C22090919C
S1130B10C320A091C420B091C5208093BE2090939F
S1130B20BF20A093C020B093C1208091A7209091B2
S1130B30A820A091A920B091AA208093A3209093EB
S1130B40A420A093A520B093A6208091AF209091DB
S1130B50B020A091B120B091B2208093AB209093AB
S1130B60AC20A093AD20B093AE2008C01092DC203E
S1130B701092DD201092DE201092DF206091DC20A4
S1130B807091DD208091DE209091DF20C0900620BE
S1130B90D0900720E0900820F09009203CD59B01DC
S1130BA0772324F422273327261B370BB901882700
S1130BB077FD8095982F62D5A701960162D6882388
S1130BC0D4F04091DC205091DD206091DE207091C2
S1130BD0DF208091062090910720A0910820B091F9
S1130BE0092077FBB7F98093DC209093DD20A09354
S1130BF0DE20B093DF206091DC207091DD208091B5
S1130C00DE209091DF20C1DB6091EB207091EC201D
S1130C108091ED209091EE2020919B2030919C209A
S1130C2040919D2050919E2026D46093EB20709398
S1130C30EC208093ED209093EE206496CDBFDEBF30
S1130C40DF91CF91FF91EF91BF91AF919F918F91E0
S1130C507F916F915F914F913F912F91FF90EF9012
S1130C60DF90CF90BF90AF909F908F907F906F90C8
S1130C705F904F900F900BBE0F900ABE0F9009BE6D
S1130C800F9008BE0F900FBE0F901F9018951F92E3
S1130C900F920FB60F92112408B60F9218BE09B620
S1130CA00F9219BE0BB60F921BBE2F933F934F9317
S1130CB05F936F937F938F939F93AF93BF93EF93C0
S1130CC0FF93E0E4F9E0818580FF18C06091C220C1
S1130CD07091C3208091C4209091C52020E030E021
S1130CE040E85FE3C7D36093C2207093C32080932E
S1130CF0C4209093C5201092C62023C08091C620A2
S1130D00811119C06091C2207091C3208091C420C8
S1130D109091C52020E030E040E85FE3ACD36093DD
S1130D20C2207093C3208093C4209093C52081E097
S1130D308093C62006C08091C620813011F41092A1
S1130D40C620FF91EF91BF91AF919F918F917F91B9
S1130D506F915F914F913F912F910F900BBE0F9028
S1130D6009BE0F9008BE0F900FBE0F901F901895EC
S1130D70E0E5F0E0808182608083818181FFFDCFA6
S1130D8088ED84BF81E0809340000895E0E4F8E0BA
S1130D902181218326812160268386A397A38081D4
S1130DA0866080830895E0E4F6E088E0818394E03F
S1130DB092838583E0EAF8E08581836085838BE60E
S1130DC0868380EB87838481886084830895E0E44C
S1130DD0FBE083E181838FE396E086A397A3808180
S1130DE08160808380E1A0EAB6E011968C9310A61E
S1130DF011A60895E0E6F6E08BE1828380898360A2
S1130E00808B81898360818B83898360838B8489D0
S1130E108360848BE0E8F1E088E680838BE682835C
S1130E20808589608087828589608287E0E4F9E033
S1130E308081816080838381886683838FEF9FE1D3
S1130E4086A397A3268122602683E0E4FAE020812A
S1130E502160208323812A66238386A397A3868126
S1130E60826086830895E0E4F6E080E481838683EB
S1130E7088E1848B80E1858B878B2FEF87E893E172
S1130E80215080409040E1F700C00000E0ECF8E021
S1130E9080E48083A0E0B6E088E111968C931197FA
S1130EA015968C938281882334F483818093E62081
S1130EB082818823D4F31092E620089559DF2FEF1E
S1130EC037E883E1215030408040E1F700C0000062
S1130ED06ADF8AE090E28093FC209093FD208CE00E
S1130EE0E0EAF6E0818373DFE0E0F6E080EE8283FF
S1130EF080E1858B868B878B8AE097EDA3EABCE340
S1130F0080939B2090939C20A0939D20B0939E203F
S1130F106091002070E080E090E0B0D39B01AC01D0
S1130F2060E070E080E89FE30ED360939B207093B1
S1130F309C2080939D2090939E2060919B20709193
S1130F409C2080919D2090919E2020E034E244EFEB
S1130F5057E49BD465D36093E0207093E1208091A3
S1130F60E0209091E12012DFC0E0D6E016C0888531
S1130F7086FF06C060E070E080E490E406DA0DC00D
S1130F80888585FF06C060E070E080E490ECFDD9C0
S1130F9004C060E070E0CB01F8D9888588233CF771
S1130FA062DFE12CF12CC0ECD8E000E016E068949C
S1130FB0DD24D3F80F2EF4E1CF2EF02D96E0E916C0
S1130FC0F1049CF41B82F801D6828A818823ECF711
S1130FD0F801D5828B818093E6201B828A81882345
S1130FE0ECF78B818093B5204BC0A0908520609155
S1130FF08C2070918D2080918E2090918F20BB2425
S1131000B3942AE939E949E95EE399D218160CF454
S1131010B12CBB2031F081E0A11080E08111C0929D
S113102000206091002070E080E090E027D39B01D5
S1131030AC0160E070E080E89FE385D260939B2080
S113104070939C2080939D2090939E2080910020FB
S11310508093F320809105208B83F801D6828A81C6
S11310608823ECF7F801D5828B818093E620809168
S1131070F3208B838A818823ECF78B818093B520BE
S11310808091E6208130C1F48091B52080939A202C
S113109060919A2070E080E090E0F0D220E030E0AF
S11310A040E251E450D2609396207093972080934D
S11310B09820909399206AC08091E6208230C1F4F0
S11310C08091B520809395206091952070E080E018
S11310D090E0D4D220E030E040E251E434D2609396
S11310E091207093922080939320909394204EC0EB
S11310F08091E6208330C1F48091B52080939020C4
S11311006091902070E080E090E0B8D220E030E080
S113111040E251E418D260938C2070938D20809328
S11311208E2090938F2032C08091E6208430C1F4C9
S11311308091B52080938B2060918B2070E080E0BB
S113114090E09CD220E030E040E251E4FCD1609396
S11311508720709388208093892090938A2016C0DA
S11311608091E620853029F48091B52080938620F3
S11311700DC08091E620863029F48091B5208093BB
S1131180852004C01092E6201092B520FFEFEF1ADC
S1131190FF0A27E0E216F10409F010CFD091852070
S11311A060918C2070918D2080918E2090918F2061
S11311B0C1E02AE939E949E95EE3C1D118160CF422
S11311C0C0E0CC2391F081E0D11180E0882369F064
S11311D080E090E0A0E0B0E480939F209093A02072
S11311E0A093A120B093A2200CC080E090E0A0E8DE
S11311F0BFE380939F209093A020A093A120B0935D
S1131200A22080909F209090A020A090A120B09038
S1131210A220F0918520E0918620C0908720D09074
S11312208820E0908920F0908A2000918C201091F1
S11312308D2020918E2030918F20409191205091CB
S113124092206091932070919420809196209091A7
S11312509720A0919820B0919920BF92AF929F922D
S11312608F921F92FF931F92EF93FF92EF92DF9260
S1131270CF923F932F931F930F937F936F935F931B
S11312804F93BF93AF939F938F9388E190E29F9383
S11312908F930E94BE1160919B2070919C2080913D
S11312A09D2090919E2020E034E244EF57E4EDD25B
S11312B0B7D16093E0207093E1208091E020909179
S11312C0E120E0E4F8E086A397A3E0E6F6E080E816
S11312D0818380E48183D091852060918C207091FA
S11312E08D2080918E2090918F20C1E0EDB7FEB7C4
S11312F07A96EDBFFEBF20E030E0A90120D1811134
S113130001C0C0E0CC23F9F081E0D11180E0882352
S1131310D1F060918620C0908C20D0908D20E090F8
S11313208E20F0908F2070E080E090E0A7D1A7019C
S1131330960109D16093EF207093F0208093F120FF
S11313409093F22043C0D0918520609187207091C2
S113135088208091892090918A20C1E020E030E0AB
S1131360A901EDD0811101C0C0E0CC23F9F081E0E6
S1131370D11180E08823D1F060918620C09087202D
S1131380D0908820E0908920F0908A2070E080E05E
S113139090E074D1A7019601D6D06093EF207093AA
S11313A0F0208093F1209093F22010C0809185204A
S11313B0813061F480E090E0A0E4B0E48093EF2019
S11313C09093F020A093F120B093F2208091EF202D
S11313D09091F020A091F120B091F22020918520ED
S11313E0BF93AF939F938F931F922F938CE590E2BB
S11313F09F938F93C3D7FEDC87E0E0EAF0E082831B
S113140078942DB73EB7285F3F4F2DBF3EBF00E60F
S113141016E06894DD24D7F8C0E0D6E00F2EF8ED8E
S1131420BF2EF02D0F2EF8E7EF2EF12CF02DF80142
S1131430D7826091EB207091EC208091ED20909107
S1131440EE202091EF203091F0204091F120509136
S1131450F220E885EE235CF3CC24C39412D28823D3
S11314600CF4C12CCC2019F3F894B4BE81E0F7013C
S11314708183DDCF5058BB27AA270ED0B1C1A2D19A
S113148030F0A7D120F031F49F3F11F41EF497C13E
S11314900EF4E095E7FB64C1E92FB3D180F3BA17EA
S11314A0620773078407950718F071F49EF5E2C18B
S11314B00EF4E0950B2EBA2FA02D0B01B90190016B
S11314C00C01CA01A0011124FF27591B99F0593FAF
S11314D050F4503E68F11A16F040A22F232F342FF7
S11314E04427585FF3CF469537952795A795F04045
S11314F05395C9F77EF41F16BA0B620B730B840B5A
S1131500BAF09150A1F0FF0FBB1F661F771F881F11
S1131510C2F70EC0BA0F621F731F841F48F4879569
S113152077956795B795F7959E3F08F0B3CF939558
S1131530880F08F09927EE0F979587950895ECD0BA
S113154008F481E008950CD04BC143D140F03AD166
S113155030F021F45F3F19F003C151118CC12FC148
S113156050D198F39923C9F35523B1F3951B550B27
S1131570BB27AA2762177307840738F09F5F5F4F62
S1131580220F331F441FAA1FA9F333D00E2E3AF0A3
S1131590E0E830D091505040E695001CCAF729D0BD
S11315A0FE2F27D0660F771F881FBB1F261737070C
S11315B04807AB07B0E809F0BB0B802DBF01FF273C
S11315C093585F4F2AF09E3F510568F0C9C053C13C
S11315D05F3FECF3983EDCF3869577956795B79576
S11315E0F7959F5FC9F7880F911D9695879597F991
S11315F00895E1E0660F771F881FBB1F621773070A
S11316008407BA0720F0621B730B840BBA0BEE1F1E
S113161088F7E095089504D06894B1112CC1089519
S1131620F8D088F09F5790F0B92F9927B751A0F0C0
S1131630D1F0660F771F881F991F1AF0BA95C9F762
S113164012C0B13081F016D1B1E0089513C1672FF3
S1131650782F8827B85F39F0B93FCCF38695779512
S11316606795B395D9F73EF49095809570956195FB
S11316707F4F8F4F9F4F0895E89409C097FB3EF426
S113168090958095709561957F4F8F4F9F4F9923CB
S1131690A9F0F92F96E9BB279395F6958795779549
S11316A06795B795F111F8CFFAF4BB0F11F460FF09
S11316B01BC06F5F7F4F8F4F9F4F16C0882311F061
S11316C096E911C0772321F09EE8872F762F05C075
S11316D0662371F096E8862F70E060E02AF09A9510
S11316E0660F771F881FDAF7880F9695879597F905
S11316F00895A9D080F09F3740F491110EF0BBC03B
S113170060E070E080E89FEB089526F41B16611DED
S1131710711D811D2BC045C0990F0008550FAA0BE0
S1131720E0E8FEEF16161706E807F907C0F01216F0
S11317301306E407F50798F0621B730B840B950BF3
S113174039F40A2661F0232B242B252B21F4089548
S11317500A2609F4A140A6958FEF811D811D0895E5
S113176097F99F6780E870E060E00895882371F43A
S1131770772321F09850872B762F07C0662311F426
S113178099270DC09051862B70E060E02AF09A955D
S1131790660F771F881FDAF7880F9695879597F954
S11317A008959F3F31F0915020F487957795679580
S11317B0B795880F911D9695879597F908959FEF92
S11317C080EC089500240A941616170618060906D4
S11317D0089500240A9412161306140605060895A3
S11317E0092E0394000C11F4882352F0BB0F40F42B
S11317F0BF2B11F460FF04C06F5F7F4F8F4F9F4F6B
S1131800089557FD9058440F551F59F05F3F71F0EC
S11318104795880F97FB991F61F09F3F79F0879553
S11318200895121613061406551FF2CF4695F1DFDC
S113183008C0161617061806991FF1CF869571056C
S1131840610508940895E5DFA0F0BEE7B91788F4B0
S1131850BB279F3860F41616B11D672F782F882791
S1131860985FF7CF869577956795B11D93959639CF
S1131870C8F30895E894BB2766277727CB0197F927
S113188008954ADF08F48FEF08950BD0A9CF9ADFAB
S113189028F09FDF18F0952309F062CF90CF112430
S11318A0EACFAFDFA0F3959FD1F3950F50E0551F1A
S11318B0629FF001729FBB27F00DB11D639FAA27A1
S11318C0F00DB11DAA1F649F6627B00DA11D661FF0
S11318D0829F2227B00DA11D621F739FB00DA11D11
S11318E0621F839FA00D611D221F749F3327A00DCB
S11318F0611D231F849F600D211D822F762F6A2F67
S113190011249F5750408AF0E1F088234AF0EE0FEB
S1131910FF1FBB1F661F771F881F91505040A9F7F8
S11319209E3F510570F01CCFA6CF5F3FECF3983E6D
S1131930DCF3869577956795B795F795E7959F5F5F
S1131940C1F7FE2B880F911D9695879597F90895F9
S11319509F9305D00F9007FCEE5F28C030CF59DF6E
S1131960E8F3E894E0E0BB279F57F0F02AED3FE06E
S113197049EC06C0EE0FBB0F661F771F881F28F0C7
S1131980B23A62077307840728F0B25A620B730BEA
S1131990840BE3959A9572F7803830F49A95BB0FCF
S11319A0661F771F881FD2F79048FDCEEF93E0FFA4
S11319B006C0A2EA2AED3FE049EC5FEB6DDD10DFE3
S11319C00F90039401FC9058ECEFF1E000C09F935A
S11319D08F937F936F93FF93EF939B01AC0155DF3C
S11319E0EF91FF9105D02F913F914F915F914DCF92
S11319F0DF93CF931F930F93FF92EF92DF927B01BC
S1131A008C01689405C0DA2EEF014BDFFE01E894E7
S1131A10A5912591359145915591AEF3EF013CDDAA
S1131A20FE019701A801DA9479F7DF90EF90FF9017
S1131A300F911F91CF91DF9108952F923F924F9272
S1131A405F926F927F928F929F92AF92BF92CF924A
S1131A50DF92EF92FF920F931F93CF93DF93CDB753
S1131A60DEB76397CDBFDEBF7C011B016A01FC01B9
S1131A7016821782838181FF49C3BE016F5F7F4F46
S1131A804B01F7019381F10193FD859193FF8191BE
S1131A901F01882309F436C3853239F493FD8591F7
S1131AA093FF81911F01853231F4B70190E034D462
S1131AB056016501E6CF10E0512C20E02032A0F45D
S1131AC08B3269F030F4803259F0833269F420614A
S1131AD02CC08D3239F0803339F4216026C0226065
S1131AE0246023C0286021C027FD27C030ED380FB3
S1131AF03A3078F426FF06C0FAE01F9F300D112417
S1131B00132F13C06AE0569E300D1124532E206209
S1131B100CC08E3221F426FDF5C2206406C08C363A
S1131B2011F4206802C0883641F4F10193FD8591D7
S1131B3093FF81911F018111C1CF9BEB980F9330CB
S1131B4018F42061805E06C09BE9980F933008F07A
S1131B509AC12F7E26FF16E02F73722E853621F44C
S1131B60F22FF0647F2E08C0863621F4622F60685D
S1131B70762E02C01111115077FE07C01C3348F4B1
S1131B8044244394410E27E00BC0183030F4212F35
S1131B9006C027E04CE3442E03C027E017E0412CA5
S1131BA0560174E0A70EB11CF60160817181828137
S1131BB09381042DA401C2D26C01098100FF02C0EB
S1131BC003FF06C071FC07C072FC08C0612C08C08A
S1131BD03DE2632E05C02BE2622E02C090E2692E24
S1131BE0802F8C7081F1662011F084E001C083E0C5
S1131BF0851510F0512C0AC0581A73FC07C0B701A0
S1131C0080E290E089D35A94D1F7F4CF662021F092
S1131C10B701862D90E080D303FD03C00EE112E0EE
S1131C2002C00AE112E0F72DF0717F2EF8018491D1
S1131C30882309F45EC271108052B70190E06CD31E
S1131C400F5F1F4FF3CF77FE0FC04C0C04FF04C08F
S1131C508A81813309F44A94141474F5F8E0F41574
S1131C6078F588E0482E2CC076FC2AC0812F90E0BD
S1131C708C159D059CF06CEFC6166FEFD60674F0BC
S1131C80772D7068772E0AC0E2E0F0E0EC0FFD1FBC
S1131C90E10FF11D8081803319F411501111F4CF3B
S1131CA077FE0EC044244394410E812F90E0C81661
S1131CB0D9062CF41C1904C04424439401C010E038
S1131CC077FE07C01C141D043CF496012F5F3F4FA0
S1131CD005C025E030E002C021E030E0662011F0CC
S1131CE02F5F3F4F112331F0412F50E04F5F5F4F83
S1131CF0240F351F452D50E02417350714F4521ACC
S1131D0001C0512C872D897041F4552031F0B70161
S1131D1080E290E001D35A94F8CF662021F0B70115
S1131D20862D90E0F9D273FC08C0552031F0B7013C
S1131D3080E390E0F1D25A94F8CF77FE5DC09C2DF9
S1131D408D2DD7FE02C090E080E0692E782E40E011
S1131D5050E0C601841991098C879D879601261944
S1131D603709280D391D812F90E0EE27FF27E81B46
S1131D70F90BEE87FF87FFEF6F167F0661F4B7015B
S1131D808EE290E02B8B3A8B488B598BC5D25989C4
S1131D9048893A892B89C614D70454F06C857D850B
S1131DA0661577052CF4F901E40FF51F818101C054
S1131DB080E371E0671A71084F5F5F4FEE85FF851E
S1131DC06E167F0664F0B70190E02B8B3A8B488B3C
S1131DD0598BA2D22B893A8948895989CCCF6C1462
S1131DE07D0439F49A81963318F4953311F404FF81
S1131DF081E3B70190E045C08A81813309F00F7E09
S1131E00B70190E089D2111105C074FE16C085E4B3
S1131E1090E015C0B7018EE290E07ED282E06624A5
S1131E206394680EF401E80FF11D8081B70190E01E
S1131E3073D2115051F3862DF2CF85E690E0B701AD
S1131E406BD2D7FC05C0C114D10439F404FF05C01A
S1131E50D194C194D1088DE201C08BE2B70190E026
S1131E605BD280E36AE0C616D1042CF08F5FFAE0FF
S1131E70CF1AD108F7CFB70190E04ED2B701C6010F
S1131E80C0964AD236C1833631F0833779F0833530
S1131E9009F054C020C0560172E0A70EB11CF6012F
S1131EA08081898301E010E0640113C05601F2E0EF
S1131EB0AF0EB11CF601C080D18026FF03C0612F94
S1131EC070E002C06FEF7FEFC6012B8B1AD28C013A
S1131ED02B892F7714C05601F2E0AF0EB11CF60126
S1131EE0C080D18026FF03C0612F70E002C06FEF75
S1131EF07FEFC6012B8BFAD18C012B892068722EBF
S1131F0023FD18C0852D90E00817190798F4B70130
S1131F1080E290E001D25A94F5CFF60177FC8591E6
S1131F2077FE81916F01B70190E0F6D151105A9478
S1131F30015011090115110581F7DBC0843611F038
S1131F40893649F5560127FF09C0F4E0AF0EB11CEC
S1131F50F60160817181828193810AC0F2E0AF0E43
S1131F60B11CF60160817181882777FD8095982FD7
S1131F70022F0F7697FF08C0909580957095619514
S1131F807F4F8F4F9F4F00682AE030E0A40107D2B3
S1131F90C82EC8183DC0022F853721F40F7E2AE0D1
S1131FA030E01DC0097F8F3691F018F4883559F060
S1131FB0A9C0803719F0883711F0A4C0006104FF6C
S1131FC009C0046007C024FF08C0066006C028E0FA
S1131FD030E005C020E130E002C020E132E05601EB
S1131FE007FF09C0F4E0AF0EB11CF60160817181F6
S1131FF08281938108C0F2E0AF0EB11CF6016081CA
S1132000718180E090E0A401CAD1C82EC8180F776E
S113201006FF0BC0202F2E7FC11650F404FF0AC008
S113202002FD08C0202F2E7E05C0DC2C202F03C00B
S1132030DC2C01C0D12E24FF0DC0FE01EC0DF11DDE
S11320408081803311F4297E09C022FF06C0D39415
S1132050D39404C0822F867809F0D39423FD12C050
S113206020FF06C01C2DD51418F4150D1D19D52CF0
S1132070D51460F4B70180E290E02B8B4DD1D3945A
S11320802B89F6CFD51410F45D1801C0512C24FF10
S113209011C0B70180E390E02B8B3ED12B8922FF46
S11320A016C021FF03C088E590E002C088E790E0F5
S11320B0B7010CC0822F867851F021FD02C080E266
S11320C001C08BE227FD8DE2B70190E025D1C11656
S11320D030F4B70180E390E01FD11150F8CFCA94D7
S11320E0F401EC0DF11D8081B70190E015D1C11010
S11320F0F6CF552009F4DDCCB70180E290E00CD195
S11321005A94F7CFF7018681978102C08FEF9FEF32
S11321106396CDBFDEBFDF91CF911F910F91FF90EA
S1132120EF90DF90CF90BF90AF909F908F907F9073
S11321306F905F904F903F902F900895283008F053
S113214027E03327DA01990F311D87FD916000964E
S11321506105710539F432602E5F3D9330E32A95B1
S1132160E1F708959F3F30F080387105610509F06B
S11321703C5F3C5F3D93913008F08068911DDF9394
S1132180CF931F930F93FF92EF92192F987F9695F9
S1132190E92F96959695E90FFF27E458FD4F992767
S11321A03327EE24FF24A701E70105900894079440
S11321B028F4360FE71EF81E491F511D660F771FBE
S11321C0881F991F0694A1F70590079428F4E70E39
S11321D0F81E491F561FC11D770F881F991F661FC0
S11321E00694A1F70590079428F4F80E491F561F8A
S11321F0C71FD11D880F991F661F771F0694A1F76B
S11322000590079420F4490F561FC71FD81F990F34
S1132210661F771F881F0694A9F78491109517707D
S113222041F0D695C79557954795F794E7941A9535
S1132230C1F7E2E2F2E06894159015913591659149
S1132240959105907FE27395E118F10A430B560BC3
S1132250C90BD009C0F7E10CF11E431F561FC91F5B
S1132260D01D7EF4703311F48A95E6CFE8940150C2
S113227030F0080F0AF40027021708F4202F2395E2
S1132280022F7A3328F079E37D932A95E9F710C079
S11322907D932A9589F606949795679537951795B2
S11322A01794E118F10A430B560BC90BD00998F0A7
S11322B023957E9173957A3308F070E37C93201311
S11322C0B8F77E9170617D9330F0839571E37D93CF
S11322D070E32A95E1F71124EF90FF900F911F917D
S11322E0CF91DF91992787FD90950895FC01059082
S11322F0615070400110D8F7809590958E0F9F1F04
S11323000895FC016150704001900110D8F7809548
S113231090958E0F9F1F08950F931F93CF93DF9374
S1132320182F092FEB018B8181FD03C08FEF9FEFE5
S113233020C082FF10C04E815F812C813D814217F5
S113234053077CF4E881F9819F012F5F3F4F288375
S11323503983108306C0E885F985812F1995892B67
S113236029F72E813F812F5F3F4F2E833F83812F9B
S1132370902FDF91CF911F910F910895CF93DF9309
S1132380CDB7DEB7FE01369661917191AF018091B0
S1132390FC209091FD2051DBDF91CF910895FA014B
S11323A0AA27283051F1203181F1E8946F936E7F90
S11323B06E5F7F4F8F4F9F4FAF4FB1E03ED0B4E081
S11323C03CD0670F781F891F9A1FA11D680F791FC2
S11323D08A1F911DA11D6A0F711D811D911DA11DD3
S11323E020D009F468943F912AE0269F11243019E3
S11323F0305D3193DEF6CF010895462F4770405D7E
S11324004193B3E00FD0C9F7F6CF462F4F70405D2C
S11324104A3318F0495D31FD4052419302D0A9F787
S1132420EACFB4E0A6959795879577956795BA9581
S1132430C9F700976105710508959B01AC010A2E47
S113244006945795479537952795BA95C9F7620F1E
S1112450731F841F951FA01D0895F894FFCFDD
S113245E32CDCC4C3DF000004041000000020000A3
S113246E0000B401000000004131203D202566200B
S113247E09204132203D2025662009206631203D69
S113248E2025662009206632203D2025662009205D
S113249E6E43203D202575200920694D203D2025C1
S11324AE75204B70203D202566200A00696E7075DC
S11324BE744D6F6465203D20257520092073746F5B
S11124CE7054696D65203D202566200A0000CB
S9030000FC
