:100000008DC10000B0C10000AEC10000ACC1000055
:10001000AAC10000A8C10000A6C10000A4C1000040
:10002000A2C10000A0C100009EC100009CC1000050
:100030009AC1000098C1000096C1000094C1000060
:1000400092C1000090C100008EC100008CC1000070
:100050002FC2000088C1000086C1000084C10000DA
:1000600082C1000080C100007EC100007CC1000090
:100070007AC1000078C1000076C1000074C10000A0
:1000800072C1000070C100006EC100006CC10000B0
:100090006AC1000068C1000066C1000064C10000C0
:1000A00062C1000060C100005EC100005CC10000D0
:1000B0005AC1000058C1000056C1000054C10000E0
:1000C00052C1000050C100004EC100004CC10000F0
:1000D0004AC1000048C1000046C1000044C1000000
:1000E00042C1000040C100003EC100003CC1000010
:1000F0003AC1000038C1000036C1000034C1000020
:1001000032C1000030C100002EC100002CC100002F
:100110002AC1000028C1000026C1000024C100003F
:1001200022C1000020C100001EC100001CC100004F
:100130001AC1000018C1000016C1000014C100005F
:1001400012C1000010C100000EC100009CC50000DB
:100150000AC1000008C1000006C1000004C100007F
:1001600002C1000000C10000FEC00000FCC0000091
:10017000FAC00000F8C00000F6C00000F4C00000A3
:10018000F2C00000F0C00000EEC00000ECC00000B3
:10019000EAC00000E8C00000E6C00000E4C00000C3
:1001A000E2C00000E0C00000DEC00000DCC00000D3
:1001B000DAC00000D8C00000D6C00000D4C00000E3
:1001C000D2C00000D0C00000CEC00000CCC00000F3
:1001D000CAC00000C8C00000C6C00000C4C0000003
:1001E000C2C00000C0C00000BEC00000BCC0000013
:1001F000BAC00000B8C00000B6C0000005A84CCDD1
:10020000B2D44EB93836A9020C50B9918688083C50
:10021000A6AAAA2ABE000000803F6E616E00696E29
:10022000660000407A10F35A00A0724E18090010C0
:10023000A5D4E80000E87648170000E40B5402005B
:1002400000CA9A3B000000E1F50500008096980086
:10025000000040420F000000A086010000001027AF
:1002600000000000E803000000006400000000003F
:100270000A00000000000100000000002C76D88871
:10028000DC674F0823DFC1DFAE59E1B1B796E5E384
:10029000E453C63AE651997696E8E6C28426EB899D
:1002A0008C9B62ED407C6FFCEFBC9C9F40F2BAA53A
:1002B0006FA5F490055A2AF75C936B6CF9676DC1D2
:1002C0001BFCE0E40D47FEF520E6B500D0ED902ED6
:1002D0000300943577050080841E080000204E0A34
:1002E000000000C80C333333330F986E1283114172
:1002F000EF8D2114893BE65516CFFEE6DB18D1843D
:100300004B381BF77C1D901DA4BBE4242032847263
:100310005E228100C9F124ECA1E53D2711241FBE16
:10032000CFEFCDBFDFE3DEBF00E00CBF18BE19BECC
:100330001ABE1BBE10E2A0E0B0E2E8E6F0E200E088
:100340000BBF02C007900D92A433B107D9F71BBEB3
:1003500020E2A4E3B0E201C01D92A939B207E1F79F
:1003600080D50C9432104CCECF93C82F8A3011F424
:100370008DE0FADFE0EAF8E0918195FFFDCFC093D0
:10038000A00880E090E0CF91089520E030E040E4C4
:1003900051E423D720E030EE47EC54E40E94750A84
:1003A00060936B2070936C2080936D2090936E20EF
:1003B00060916B2070916C2080916D2090916E20E7
:1003C00020E030E0A90102D788230CF041C0E0EA28
:1003D000F6E088E0858384E0868380916B209091AD
:1003E0006C20A0916D20B0916E20B05880936B204E
:1003F00090936C20A0936D20B0936E2060916B2041
:1004000070916C2080916D2090916E2020E030EEF4
:1004100047EC54E40E94710A882364F080E090EE77
:10042000A7ECB4E480936B2090936C20A0936D2094
:10043000B0936E2060916B2070916C2080916D2044
:1004400090916E2037D7E0E4FBE060A771A7089594
:10045000E0EAF6E084E0858388E0868360916B20A3
:1004600070916C2080916D2090916E2020E030EE94
:1004700047EC54E40E94710A882364F080E090EE17
:10048000A7ECB4E480936B2090936C20A0936D2034
:10049000B0936E2060916B2070916C2080916D20E4
:1004A00090916E2007D7E0E4FBE060A771A7089564
:1004B0001F920F920FB60F92112408B60F9218BE1A
:1004C00009B60F9219BE0AB60F921ABE0BB60F925A
:1004D0001BBE4F925F926F927F928F929F92AF92CC
:1004E000BF92CF92DF92EF92FF920F931F932F93C1
:1004F0003F934F935F936F937F938F939F93AF93AC
:10050000BF93EF93FF93CF93DF93CDB7DEB764979D
:10051000CDBFDEBF80E4E0E6F6E0878300910020F7
:100520006091892070918A2080918B2090918C20FD
:1005300020918D2030918E2040918F2050919020DD
:1005400011E044D618160CF410E0112309F476C01B
:1005500081E0023009F080E0882309F46FC06091E7
:100560000220709103208091042090910520C0907A
:100570008920D0908A20E0908B20F0908C202BED69
:100580003FE049EC50E4B1D7A7019601AED70E94F5
:10059000D80A2091062030910720409108205091E0
:1005A0000920A3D7609385207093862080938720AD
:1005B00090938820C0900620D0900720E0900820DB
:1005C000F090092040900220509003206090042079
:1005D000709005206091022070910320809104208A
:1005E000909105208090892090908A20A0908B2067
:1005F000B0908C202BED3FE049EC50E476D7A5017C
:10060000940173D7E7D54B015C01A7019601C7019F
:10061000B60178D52BED3FE049E450E466D7A3015D
:10062000920163D7A501940160D7609381207093F4
:100630008220809383209093842038C000910020F2
:100640006091892070918A2080918B2090918C20DC
:1006500020918D2030918E2040918F2050919020BC
:1006600011E0B4D518160CF410E01123B9F081E0B4
:10067000013009F080E0882389F080910620909174
:100680000720A0910820B0910920809385209093A5
:100690008620A0938720B093882008C010927320F2
:1006A000109274201092752010927620609189200B
:1006B00070918A2080918B2090918C2020E030E0F6
:1006C000A90184D5811110C0E0E4F9E080A191A1D5
:1006D000809365209093662080916520909166209C
:1006E0008093652090936620E0E4F9E080A191A1D9
:1006F00080939120909392208091912090919220CC
:10070000992324F4109291201092922080919120AC
:10071000909192208115904234F08FEF9FE1809369
:1007200091209093922060919120709192208091DD
:10073000652090916620C0905820D0905920E0907C
:100740005A20F0905B20681B790B882777FD8095F5
:10075000982FDED520E038EF4FEF55E43ED5A701C6
:100760009601D0D420E030E044EB53E4BED6609351
:100770006120709362208093632090936420609145
:10078000612070916220809163209091642020917B
:100790005D2030915E2040915F2050916020B1D467
:1007A0006093502070935120809352209093532057
:1007B000609150207091512080915220909153204F
:1007C0002091792030917A2040917B2050917C209B
:1007D00004D560934C2070934D2080934E209093CD
:1007E0004F20609185207091862080918720909184
:1007F00088202091612030916220409163205091A7
:1008000064207FD4609340207093412080934220E5
:100810009093432060910A2070910B2080910C20CE
:1008200090910D204090792050907A2060907B200C
:1008300070907C208090382090903920A0903A20B1
:10084000B0903B2020913C2030913D2040913E20B3
:1008500050913F2029833A834B835C8320910A2067
:1008600030910B2040910C2050910D202D833E8320
:100870004F8358872091792030917A2040917B20B6
:1008800050917C2029873A874B875C8720913820BC
:100890003091392040913A2050913B202D873E875E
:1008A0004F87588B20914020309141204091422029
:1008B00050914320298B3A8B4B8B5C8BC09044200A
:1008C000D0904520E0904620F090472020E030E096
:1008D00040E05FE30AD6A301920107D6A501940187
:1008E00010D429813A814B815C81FFD54B015C0199
:1008F00020E030E040E05FE36D817E818F8198856C
:10090000F4D529853A854B855C85EFD52D853E85C7
:100910004F855889F7D329893A894B895C89E5D570
:100920009B01AC01C501B401EDD3A7019601EAD347
:10093000609348207093492080934A2090934B20E5
:100940008091482090914920A0914A20B0914B205D
:100950008093732090937420A0937520B093762099
:100960008091612090916220A0916320B0916420D9
:1009700080935D2090935E20A0935F20B0936020D1
:100980008091582090915920A0915A20B0915B20DD
:100990008093542090935520A0935620B0935720D5
:1009A0008091402090914120A0914220B09143201D
:1009B00080933C2090933D20A0933E20B0933F2015
:1009C0008091482090914920A0914A20B0914B20DD
:1009D0008093442090934520A0934620B0934720D5
:1009E0006091732070917420809175209091762091
:1009F000C0900E20D0900F20E0901020F090112099
:100A000054D49B01772324F422273327261B370B4A
:100A1000B901882777FD8095982F7AD4A701960190
:100A200060D58823D4F04091732050917420609158
:100A300075207091762080910E2090910F20A091CA
:100A40001020B091112077FBB7F980937320909319
:100A50007420A0937520B0937620609173207091DC
:100A6000742080917520909176208FDC8090612099
:100A700090906220A0906320B0906420C090852068
:100A8000D0908620E0908720F090882040917320BD
:100A9000509174206091752070917620809189200A
:100AA00090918A20A0918B20B0918C20BF92AF9220
:100AB0009F928F92FF92EF92DF92CF927F936F93EC
:100AC0005F934F93BF93AF939F938F9380E290E296
:100AD0009F938F930E94C30F6091892070918A2009
:100AE00080918B2090918C202091792030917A20D8
:100AF00040917B2050917C2005D360938920709396
:100B00008A2080938B2090938C20CDBFDEBF64968B
:100B1000CDBFDEBFDF91CF91FF91EF91BF91AF913C
:100B20009F918F917F916F915F914F913F912F9105
:100B30001F910F91FF90EF90DF90CF90BF90AF90FB
:100B40009F908F907F906F905F904F900F900BBE13
:100B50000F900ABE0F9009BE0F9008BE0F900FBEF7
:100B60000F901F90189520E030E040E451E435D319
:100B700020E030EE47EC54E4B8D4609367207093E3
:100B800068208093692090936A206091672070911B
:100B900068208091692090916A2020E030E0A901CE
:100BA00015D388230CF040C0E0EAF6E080E48583AA
:100BB00080E886838091672090916820A0916920C9
:100BC000B0916A20B0588093672090936820A093DA
:100BD0006920B0936A2060916720709168208091AD
:100BE000692090916A2020E030EE47EC54E479D4FB
:100BF000882364F080E090EEA7ECB4E48093672053
:100C000090936820A0936920B0936A206091672038
:100C1000709168208091692090916A204BD3E0E424
:100C2000FBE062A773A70895E0EAF6E080E8858319
:100C300080E48683609167207091682080916920AC
:100C400090916A2020E030EE47EC54E44AD48823A7
:100C500064F080E090EEA7ECB4E48093672090937A
:100C60006820A0936920B0936A20609167207091FA
:100C700068208091692090916A201CD3E0E4FBE019
:100C800062A773A708951F920F920FB60F921124B7
:100C900008B60F9218BE09B60F9219BE0BB60F9286
:100CA0001BBE2F933F934F935F936F937F938F93CD
:100CB0009F93AF93BF93EF93FF93E0E4F9E08185B7
:100CC00080FF18C0609158207091592080915A205F
:100CD00090915B2020E030E040E85FE312D2609327
:100CE00058207093592080935A2090935B20109243
:100CF0005C2023C080915C20811119C06091582034
:100D00007091592080915A2090915B2020E030E032
:100D100040E85FE3F7D160935820709359208093A7
:100D20005A2090935B2081E080935C2006C08091E4
:100D30005C20813011F410925C20FF91EF91BF9103
:100D4000AF919F918F917F916F915F914F913F9163
:100D50002F910F900BBE0F9009BE0F9008BE0F9001
:100D60000FBE0F901F901895E0E5F0E08081826043
:100D70008083818181FFFDCF88ED84BF81E08093F6
:100D800040000895E0E4F8E021812183268121607C
:100D9000268386A397A38081866080830895E0E4FC
:100DA000F6E088E0818394E092838583E0EAF8E0CE
:100DB0008581836085838BE6868380EB878384814E
:100DC000886084830895E0E4FBE083E381838FE31C
:100DD00096E086A397A380818160808380E3A0EA68
:100DE000B6E011968C9310A611A612A613A608952C
:100DF000E0E6F6E08BE1828380898360808B8189E5
:100E00008360818B83898360838B84898360848BF7
:100E1000E0E8F1E088E680838BE682838085896064
:100E20008087828589608287E0E4F9E08081816043
:100E300080838381886683838FEF9FE186A397A356
:100E4000268122602683E0E4FAE02081216020836D
:100E500023812A66238386A397A386818260868363
:100E6000089582DF2FEF87E893E121508040904082
:100E7000E1F700C0000093DF82E190E280939520CB
:100E8000909396208CECE0EAF6E081839CDFE0E032
:100E9000F6E086EE828380E1818B828B858B868B68
:100EA000878BD09100206091022070910320809167
:100EB000042090910520C1E02AE939E949E95EE37F
:100EC00085D118160CF4C0E0CC23F9F081E0D230C3
:100ED00009F080E08823C9F080E090E0A0EAB1E466
:100EE0008093342090933520A0933620B093372000
:100EF00080E090E0A0E0B0E4809338209093392027
:100F0000A0933A20B0933B2018C080E090E0A8E482
:100F1000B2E48093342090933520A0933620B09390
:100F2000372080E090E0A0E8BFE3809338209093E2
:100F30003920A0933A20B0933B2020913420309167
:100F40003520409136205091372060E070E080E8F5
:100F50009FE343D16093792070937A2080937B2024
:100F600090937C206091792070917A2080917B20F1
:100F700090917C2020E034E244EF57E4B6D29AD13D
:100F800060937720709378208091772090917820DB
:100F9000F9DE10926F201092702010927120109242
:100FA0007220C0E0D6E03CC0888586FF0AC060E0C1
:100FB00070E080E490E4E9D960E070E0CB01D3DD3B
:100FC0002FC0888585FF0AC060E070E080E490EC67
:100FD000DCD960E070E0CB01C6DD22C0888582FFED
:100FE0000AC060E070E080E490E4BDDD60E070E0A5
:100FF000CB01CBD915C0888581FF0AC060E070E0C5
:1010000080E490ECB0DD60E070E0CB01BED908C0B8
:1010100060E070E0CB01B9D960E070E0CB01A3DD06
:10102000888588230CF0C0CFE0E6F6E080E8818375
:1010300080E48183809100208230D1F4609101208E
:10104000C0900220D0900320E0900420F090052072
:1010500070E080E090E05CD1A7019601BED0609383
:101060008D2070938E2080938F209093902010C0BD
:1010700080910020813061F480E090E0A0E4B0E451
:1010800080938D2090938E20A0938F20B0939020FA
:10109000AFDE87E0E0EAF0E08283789400E616E0D5
:1010A0006894DD24D7F8C0E0D6E00F2EF8EDBF2E0F
:1010B000F02D0F2EF8E7EF2EF12CF02DF801D7824E
:1010C0006091892070918A2080918B2090918C2052
:1010D00020918D2030918E2040918F205091902032
:1010E000E885EE235CF3CC24C394FBD188230CF475
:1010F000C12CCC2019F3F894B4BE81E0F7018183B0
:10110000DDCF5058BB27AA270ED0A0C169D130F03F
:101110006ED120F031F49F3F11F41EF45EC10EF445
:10112000E095E7FB54C1E92FB3D180F3BA1762070A
:1011300073078407950718F071F49EF5CBC10EF480
:10114000E0950B2EBA2FA02D0B01B90190010C01D7
:10115000CA01A0011124FF27591B99F0593F50F4EF
:10116000503E68F11A16F040A22F232F342F442747
:10117000585FF3CF469537952795A795F04053953F
:10118000C9F77EF41F16BA0B620B730B840BBAF00F
:101190009150A1F0FF0FBB1F661F771F881FC2F77A
:1011A0000EC0BA0F621F731F841F48F4879577958E
:1011B0006795B795F7959E3F08F0B3CF9395880F45
:1011C00008F09927EE0F979587950895DCD008F4DD
:1011D00081E0089514D1E3954AC10CD037C107D1FD
:1011E00040F0FED030F021F45F3F19F0F0C0511113
:1011F00072C1F3C04DD198F39923C9F35523B1F3CC
:10120000951B550BBB27AA2762177307840738F075
:101210009F5F5F4F220F331F441FAA1FA9F333D0D4
:101220000E2E3AF0E0E830D091505040E695001C88
:10123000CAF729D0FE2F27D0660F771F881FBB1F44
:10124000261737074807AB07B0E809F0BB0B802D1E
:10125000BF01FF2793585F4F2AF09E3F510568F06A
:10126000B6C039C15F3FECF3983EDCF386957795C5
:101270006795B795F7959F5FC9F7880F911D96956C
:10128000879597F90895E1E0660F771F881FBB1FC8
:10129000621773078407BA0720F0621B730B840B75
:1012A000BA0BEE1F88F7E095089504D06894B11149
:1012B00012C10895F5D088F09F5790F0B92F992763
:1012C000B751A0F0D1F0660F771F881F991F1AF051
:1012D000BA95C9F712C0B13081F0FCD0B1E00895E1
:1012E000F9C0672F782F8827B85F39F0B93FCCF362
:1012F000869577956795B395D9F73EF49095809547
:10130000709561957F4F8F4F9F4F0895E89409C066
:1013100097FB3EF490958095709561957F4F8F4F28
:101320009F4F9923A9F0F92F96E9BB279395F6953E
:10133000879577956795B795F111F8CFFAF4BB0FBC
:1013400011F460FF1BC06F5F7F4F8F4F9F4F16C020
:10135000882311F096E911C0772321F09EE8872FAA
:10136000762F05C0662371F096E8862F70E060E066
:101370002AF09A95660F771F881FDAF7880F9695DF
:10138000879597F90895990F0008550FAA0BE0E883
:10139000FEEF16161706E807F907C0F01216130637
:1013A000E407F50798F0621B730B840B950B39F477
:1013B0000A2661F0232B242B252B21F408950A26DD
:1013C00009F4A140A6958FEF811D811D089597F91D
:1013D0009F6780E870E060E008959FEF80EC0895DB
:1013E00000240A9416161706180609060895002404
:1013F0000A9412161306140605060895EECF50D06F
:10140000E8F3E894E0E0BB279F57F0F02AED3FE0D7
:1014100049EC06C0EE0FBB0F661F771F881F28F030
:10142000B23A62077307840728F0B25A620B730B53
:10143000840BE3959A9572F7803830F49A95BB0F38
:10144000661F771F881FD2F79048BAC0092E0394F1
:10145000000C11F4882352F0BB0F40F4BF2B11F4A1
:1014600060FF04C06F5F7F4F8F4F9F4F0895EF93D2
:10147000E0FF06C0A2EA2AED3FE049EC5FEB53DE55
:10148000E5DF0F90039401FC9058ECEFF1E0A4C06D
:1014900057FD9058440F551F59F05F3F71F0479525
:1014A000880F97FB991F61F09F3F79F0879508950A
:1014B000121613061406551FF2CF4695F1DF08C029
:1014C000161617061806991FF1CF86957105610546
:1014D00008940895E894BB2766277727CB0197F9EE
:1014E000089551DF08F48FEF08950BD0AFCF78DF68
:1014F00028F07DDF18F0952309F069CF6ECF112415
:10150000EACFC6DFA0F3959FD1F3950F50E0551FAA
:10151000629FF001729FBB27F00DB11D639FAA2748
:10152000F00DB11DAA1F649F6627B00DA11D661F97
:10153000829F2227B00DA11D621F739FB00DA11DB8
:10154000621F839FA00D611D221F749F3327A00D72
:10155000611D231F849F600D211D822F762F6A2F0E
:1015600011249F5750408AF0E1F088234AF0EE0F93
:10157000FF1FBB1F661F771F881F91505040A9F7A0
:101580009E3F510570F023CFA6CF5F3FECF3983E0E
:10159000DCF3869577956795B795F795E7959F5F07
:1015A000C1F7FE2B880F911D9695879597F90895A1
:1015B0009F9325DF0F9007FCEE5F59CF9F3F31F0DF
:1015C000915020F4879577956795B795880F911D71
:1015D0009695879597F908959F938F937F936F932F
:1015E000FF93EF939B01AC0180DFEF91FF9105D05A
:1015F0002F913F914F915F9178CFDF93CF931F93BE
:101600000F93FF92EF92DF927B018C01689405C0EB
:10161000DA2EEF0176DFFE01E894A5912591359150
:1016200045915591AEF3EF017EDDFE019701A801D2
:10163000DA9479F7DF90EF90FF900F911F91CF919F
:10164000DF9108952F923F924F925F926F927F9217
:101650008F929F92AF92BF92CF92DF92EF92FF92C2
:101660000F931F93CF93DF93CDB7DEB76397CDBFB3
:10167000DEBF7C011B016A01FC0116821782838197
:1016800081FF49C3BE016F5F7F4F4B01F70193811B
:10169000F10193FD859193FF81911F01882309F446
:1016A00036C3853239F493FD859193FF81911F01F3
:1016B000853231F4B70190E034D456016501E6CFAC
:1016C00010E0512C20E02032A0F48B3269F030F48D
:1016D000803259F0833269F420612CC08D3239F0A8
:1016E000803339F4216026C02260246023C0286042
:1016F00021C027FD27C030ED380F3A3078F426FF9F
:1017000006C0FAE01F9F300D1124132F13C06AE0AA
:10171000569E300D1124532E20620CC08E3221F4BF
:1017200026FDF5C2206406C08C3611F4206802C084
:10173000883641F4F10193FD859193FF81911F015A
:101740008111C1CF9BEB980F933018F42061805E1C
:1017500006C09BE9980F933008F09AC12F7E26FFB0
:1017600016E02F73722E853621F4F22FF0647F2E4F
:1017700008C0863621F4622F6068762E02C01111EF
:10178000115077FE07C01C3348F444244394410EA3
:1017900027E00BC0183030F4212F06C027E04CE3BF
:1017A000442E03C027E017E0412C560174E0A70E39
:1017B000B11CF6016081718182819381042DA401A5
:1017C000C2D26C01098100FF02C003FF06C071FC98
:1017D00007C072FC08C0612C08C03DE2632E05C042
:1017E0002BE2622E02C090E2692E802F8C7081F174
:1017F000662011F084E001C083E0851510F0512CC3
:101800000AC0581A73FC07C0B70180E290E089D380
:101810005A94D1F7F4CF662021F0B701862D90E0DD
:1018200080D303FD03C00EE112E002C00AE112E022
:10183000F72DF0717F2EF8018491882309F45EC2A0
:1018400071108052B70190E06CD30F5F1F4FF3CF40
:1018500077FE0FC04C0C04FF04C08A81813309F469
:101860004A94141474F5F8E0F41578F588E0482EDD
:101870002CC076FC2AC0812F90E08C159D059CF031
:101880006CEFC6166FEFD60674F0772D7068772E62
:101890000AC0E2E0F0E0EC0FFD1FE10FF11D8081D6
:1018A000803319F411501111F4CF77FE0EC0442487
:1018B0004394410E812F90E0C816D9062CF41C19D0
:1018C00004C04424439401C010E077FE07C01C14F8
:1018D0001D043CF496012F5F3F4F05C025E030E02A
:1018E00002C021E030E0662011F02F5F3F4F11234E
:1018F00031F0412F50E04F5F5F4F240F351F452DD2
:1019000050E02417350714F4521A01C0512C872DCA
:10191000897041F4552031F0B70180E290E001D3A5
:101920005A94F8CF662021F0B701862D90E0F9D2C5
:1019300073FC08C0552031F0B70180E390E0F1D28C
:101940005A94F8CF77FE5DC09C2D8D2DD7FE02C036
:1019500090E080E0692E782E40E050E0C6018419C6
:1019600091098C879D87960126193709280D391D05
:10197000812F90E0EE27FF27E81BF90BEE87FF870A
:10198000FFEF6F167F0661F4B7018EE290E02B8BBC
:101990003A8B488B598BC5D2598948893A892B890A
:1019A000C614D70454F06C857D85661577052CF434
:1019B000F901E40FF51F818101C080E371E0671A2E
:1019C00071084F5F5F4FEE85FF856E167F0664F0EE
:1019D000B70190E02B8B3A8B488B598BA2D22B8985
:1019E0003A8948895989CCCF6C147D0439F49A819D
:1019F000963318F4953311F404FF81E3B70190E0B6
:101A000045C08A81813309F00F7EB70190E089D209
:101A1000111105C074FE16C085E490E015C0B70131
:101A20008EE290E07ED282E066246394680EF40138
:101A3000E80FF11D8081B70190E073D2115051F38E
:101A4000862DF2CF85E690E0B7016BD2D7FC05C0BA
:101A5000C114D10439F404FF05C0D194C194D10854
:101A60008DE201C08BE2B70190E05BD280E36AE0D7
:101A7000C616D1042CF08F5FFAE0CF1AD108F7CF49
:101A8000B70190E04ED2B701C601C0964AD236C126
:101A9000833631F0833779F0833509F054C020C0A4
:101AA000560172E0A70EB11CF6018081898301E026
:101AB00010E0640113C05601F2E0AF0EB11CF60154
:101AC000C080D18026FF03C0612F70E002C06FEF9D
:101AD0007FEFC6012B8B1AD28C012B892F7714C074
:101AE0005601F2E0AF0EB11CF601C080D18026FF96
:101AF00003C0612F70E002C06FEF7FEFC6012B8B38
:101B0000FAD18C012B892068722E23FD18C0852DF7
:101B100090E00817190798F4B70180E290E001D22D
:101B20005A94F5CFF60177FC859177FE81916F018C
:101B3000B70190E0F6D151105A94015011090115E6
:101B4000110581F7DBC0843611F0893649F556015D
:101B500027FF09C0F4E0AF0EB11CF601608171816E
:101B6000828193810AC0F2E0AF0EB11CF601608160
:101B70007181882777FD8095982F022F0F7697FF28
:101B800008C090958095709561957F4F8F4F9F4FBE
:101B900000682AE030E0A40107D2C82EC8183DC072
:101BA000022F853721F40F7E2AE030E01DC0097F27
:101BB0008F3691F018F4883559F0A9C0803719F0A4
:101BC000883711F0A4C0006104FF09C0046007C099
:101BD00024FF08C0066006C028E030E005C020E110
:101BE00030E002C020E132E0560107FF09C0F4E016
:101BF000AF0EB11CF601608171818281938108C0B2
:101C0000F2E0AF0EB11CF6016081718180E090E0DE
:101C1000A401CAD1C82EC8180F7706FF0BC0202F09
:101C20002E7FC11650F404FF0AC002FD08C0202F09
:101C30002E7E05C0DC2C202F03C0DC2C01C0D12E51
:101C400024FF0DC0FE01EC0DF11D8081803311F4E5
:101C5000297E09C022FF06C0D394D39404C0822FEA
:101C6000867809F0D39423FD12C020FF06C01C2DF6
:101C7000D51418F4150D1D19D52CD51460F4B70121
:101C800080E290E02B8B4DD1D3942B89F6CFD514E5
:101C900010F45D1801C0512C24FF11C0B70180E37E
:101CA00090E02B8B3ED12B8922FF16C021FF03C071
:101CB00088E590E002C088E790E0B7010CC0822F71
:101CC000867851F021FD02C080E201C08BE227FD41
:101CD0008DE2B70190E025D1C11630F4B70180E361
:101CE00090E01FD11150F8CFCA94F401EC0DF11D12
:101CF0008081B70190E015D1C110F6CF552009F4CD
:101D0000DDCCB70180E290E00CD15A94F7CFF70117
:101D10008681978102C08FEF9FEF6396CDBFDEBFB4
:101D2000DF91CF911F910F91FF90EF90DF90CF90B7
:101D3000BF90AF909F908F907F906F905F904F90EB
:101D40003F902F900895283008F027E03327DA01DC
:101D5000990F311D87FD916000966105710539F479
:101D600032602E5F3D9330E32A95E1F708959F3F5F
:101D700030F080387105610509F03C5F3C5F3D93B0
:101D8000913008F08068911DDF93CF931F930F93DC
:101D9000FF92EF92192F987F9695E92F9695969539
:101DA000E90FFF27E458FD4F99273327EE24FF243E
:101DB000A701E70105900894079428F4360FE71E61
:101DC000F81E491F511D660F771F881F991F069423
:101DD000A1F70590079428F4E70EF81E491F561F37
:101DE000C11D770F881F991F661F0694A1F70590E4
:101DF000079428F4F80E491F561FC71FD11D880FDE
:101E0000991F661F771F0694A1F70590079420F489
:101E1000490F561FC71FD81F990F661F771F881FAE
:101E20000694A9F784911095177041F0D695C7953F
:101E300057954795F794E7941A95C1F7E2E2F2E0D7
:101E400068941590159135916591959105907FE273
:101E50007395E118F10A430B560BC90BD009C0F773
:101E6000E10CF11E431F561FC91FD01D7EF47033B5
:101E700011F48A95E6CFE894015030F0080F0AF487
:101E80000027021708F4202F2395022F7A3328F019
:101E900079E37D932A95E9F710C07D932A9589F619
:101EA000069497956795379517951794E118F10A59
:101EB000430B560BC90BD00998F023957E9173956F
:101EC0007A3308F070E37C932013B8F77E91706149
:101ED0007D9330F0839571E37D9370E32A95E1F76C
:101EE0001124EF90FF900F911F91CF91DF919927CF
:101EF00087FD90950895FC01059061507040011098
:101F0000D8F7809590958E0F9F1F0895FC01615022
:101F1000704001900110D8F7809590958E0F9F1F0B
:101F200008950F931F93CF93DF93182F092FEB0181
:101F30008B8181FD03C08FEF9FEF20C082FF10C017
:101F40004E815F812C813D81421753077CF4E881EB
:101F5000F9819F012F5F3F4F28833983108306C08B
:101F6000E885F985812F1995892B29F72E813F81E5
:101F70002F5F3F4F2E833F83812F902FDF91CF9193
:101F80001F910F910895CF93DF93CDB7DEB7FE0178
:101F9000369661917191AF01809195209091962034
:101FA00051DBDF91CF910895FA01AA27283051F132
:101FB000203181F1E8946F936E7F6E5F7F4F8F4F7A
:101FC0009F4FAF4FB1E03ED0B4E03CD0670F781FD9
:101FD000891F9A1FA11D680F791F8A1F911DA11DBE
:101FE0006A0F711D811D911DA11D20D009F46894F7
:101FF0003F912AE0269F11243019305D3193DEF69F
:10200000CF010895462F4770405D4193B3E00FD054
:10201000C9F7F6CF462F4F70405D4A3318F0495D3F
:1020200031FD4052419302D0A9F7EACFB4E0A69522
:102030009795879577956795BA95C9F70097610544
:10204000710508959B01AC010A2E0694579547959A
:1020500037952795BA95C9F7620F731F841F951F8F
:08206000A01D0895F894FFCFC4
:1020680002020000003F0000A040CDCC4C3D000023
:1020780040410000000200000000B4010000000020
:1020880025662009202566200920256620092025A7
:0420980066200A00B4
:00000001FF
