S0240000413155204D616E75616C20506F736974696F6E204D6F6465205230332E73726563CC
S11300008DC10000B0C10000AEC10000ACC1000051
S1130010AAC10000A8C10000A6C10000A4C100003C
S1130020A2C10000A0C100009EC100009CC100004C
S11300309AC1000098C1000096C1000094C100005C
S113004092C1000090C100008EC100008CC100006C
S11300502CC2000088C1000086C1000084C10000D9
S113006082C1000080C100007EC100007CC100008C
S11300707AC1000078C1000076C1000074C100009C
S113008072C1000070C100006EC100006CC10000AC
S11300906AC1000068C1000066C1000064C10000BC
S11300A062C1000060C100005EC100005CC10000CC
S11300B05AC1000058C1000056C1000054C10000DC
S11300C052C1000050C100004EC100004CC10000EC
S11300D04AC1000048C1000046C1000044C10000FC
S11300E042C1000040C100003EC100003CC100000C
S11300F03AC1000038C1000036C1000034C100001C
S113010032C1000030C100002EC100002CC100002B
S11301102AC1000028C1000026C1000024C100003B
S113012022C1000020C100001EC100001CC100004B
S11301301AC1000018C1000016C1000014C100005B
S113014012C1000010C100000EC100007BC40000F9
S11301500AC1000008C1000006C1000004C100007B
S113016002C1000000C10000FEC00000FCC000008D
S1130170FAC00000F8C00000F6C00000F4C000009F
S1130180F2C00000F0C00000EEC00000ECC00000AF
S1130190EAC00000E8C00000E6C00000E4C00000BF
S11301A0E2C00000E0C00000DEC00000DCC00000CF
S11301B0DAC00000D8C00000D6C00000D4C00000DF
S11301C0D2C00000D0C00000CEC00000CCC00000EF
S11301D0CAC00000C8C00000C6C00000C4C00000FF
S11301E0C2C00000C0C00000BEC00000BCC000000F
S11301F0BAC00000B8C00000B6C0000005A84CCDCD
S1130200B2D44EB93836A9020C50B9918688083C4C
S1130210A6AAAA2ABE000000803F6E616E00696E25
S1130220660000407A10F35A00A0724E18090010BC
S1130230A5D4E80000E87648170000E40B54020057
S113024000CA9A3B000000E1F50500008096980082
S1130250000040420F000000A086010000001027AB
S113026000000000E803000000006400000000003B
S11302700A00000000000100000000002C76D8886D
S1130280DC674F0823DFC1DFAE59E1B1B796E5E380
S1130290E453C63AE651997696E8E6C28426EB8999
S11302A08C9B62ED407C6FFCEFBC9C9F40F2BAA536
S11302B06FA5F490055A2AF75C936B6CF9676DC1CE
S11302C01BFCE0E40D47FEF520E6B500D0ED902ED2
S11302D00300943577050080841E080000204E0A30
S11302E0000000C80C333333330F986E128311416E
S11302F0EF8D2114893BE65516CFFEE6DB18D18439
S11303004B381BF77C1D901DA4BBE424203284725F
S11303105E228100C9F124ECA1E53D2711241FBE12
S1130320CFEFCDBFDFE3DEBF00E00CBF18BE19BEC8
S11303301ABE1BBE10E2A0E0B0E2ECEDFDE100E06D
S11303400BBF02C007900D92A033B107D9F71BBEB3
S113035020E2A0E3B0E201C01D92AD38B207E1F79C
S11303605BD40C94EC0E4CCECF93C82F8A3011F48E
S11303708DE0FADFE0EAF8E0818185FFFDCFC093EC
S1130380A00880E090E0CF91089520E030E040E4C0
S113039051E4CFD520E030EE47EC54E452D76093DB
S11303A0632070936420809365209093662060910D
S11303B0632070916420809165209091662020E0F4
S11303C030E0A901AFD588230CF040C0E0EAF6E0A4
S11303D088E0858384E08683809163209091642003
S11303E0A0916520B0916620B058809363209093CB
S11303F06420A0936520B09366206091632070917F
S11304006420809165209091662020E030EE47ECD6
S113041054E413D7882364F080E090EEA7ECB4E4AE
S11304208093632090936420A0936520B09366200A
S11304306091632070916420809165209091662082
S1130440E5D56093680B7093690B0895E0EAF6E0D4
S113045084E0858388E086836091632070916420C2
S1130460809165209091662020E030EE47EC54E4C2
S1130470E4D6882364F080E090EEA7ECB4E48093A3
S1130480632090936420A0936520B09366206091CC
S11304906320709164208091652090916620B6D588
S11304A06093680B7093690B08951F920F920FB6B7
S11304B00F92112408B60F9218BE09B60F9219BEF6
S11304C00BB60F921BBE4F925F926F927F928F92E8
S11304D09F92AF92BF92CF92DF92EF92FF920F93CF
S11304E01F932F933F934F935F936F937F938F93B8
S11304F09F93AF93BF93EF93FF9380E4809367063A
S1130500F091002060917D2070917E2080917F2069
S113051090918020209181203091822040918320ED
S113052050918420E1E0F23009F0E0E0EE2309F498
S113053076C011E0F7D418160CF410E0112309F476
S11305406EC06091022070910320809104209091EC
S11305500520C0907D20D0907E20E0907F20F090F8
S113056080202BED3FE049EC50E46BD6A7019601C7
S113057068D6CAD6209106203091072040910820E1
S1130580509109205ED66093792070937A208093ED
S11305907B2090937C20C0900620D0900720E09090
S11305A00820F09009204090022050900320609091
S11305B004207090052060910220709103208091A6
S11305C004209091052080907D2090907E20A09022
S11305D07F20B09080202BED3FE049EC50E431D6F1
S11305E0A50194012ED6A2D44B015C01A70196016A
S11305F0C701B60133D42BED3FE049E450E421D6E2
S1130600A30192011ED6A50194011BD66093752007
S113061070937620809377209093782038C0F0915F
S1130620002060917D2070917E2080917F209091A8
S1130630802020918120309182204091832050910C
S11306408420E1E0F13009F0E0E0EE23C1F011E0B4
S113065069D418160CF410E0112389F08091062057
S113066090910720A0910820B091092080937920CF
S113067090937A20A0937B20B0937C2008C01092A2
S11306806720109268201092692010926A2060916D
S11306907D2070917E2080917F209091802020E0A9
S11306A030E0A9013FD4811110C08091600990917C
S11306B061098093612090936220809161209091E0
S11306C062208093612090936220809160099091D0
S11306D06109809385209093862080918520909154
S11306E08620992324F410928520109286208091EC
S11306F08520909186208115904234F08FEF9FE100
S11307008093852090938620609185207091862027
S11307108091612090916220C0905420D090552007
S1130720E0905620F0905720681B790B072E000CA0
S1130730880B990B99D420E038EF4FEF55E4F9D3A7
S1130740A70196018BD320E030E044EB53E479D544
S113075060935D2070935E2080935F20909360206F
S113076060915D2070915E2080915F209091602067
S11307702091592030915A2040915B2050915C2067
S11307806CD360934C2070934D2080934E209093B3
S11307904F2060914C2070914D2080914E2090917B
S11307A04F2020916D2030916E2040916F20509108
S11307B07020BFD3609348207093492080934A20CF
S11307C090934B206091792070917A2080917B20C6
S11307D090917C2020915D2030915E2040915F209B
S11307E0509160203AD360933C2070933D208093D5
S11307F03E2090933F206091342070913520809169
S113080036209091372020913C2030913D2040911A
S11308103E2050913F2015D560934420709345208D
S113082080934620909347208091442090914520C6
S1130830A0914620B0914720809367209093682030
S1130840A0936920B0936A2080915D2090915E20EE
S1130850A0915F20B09160208093592090935A20FA
S1130860A0935B20B0935C208091542090915520FC
S1130870A0915620B09157208093502090935120FE
S1130880A0935220B093532080913C2090913D201E
S1130890A0913E20B0913F2080933820909339203E
S11308A0A0933A20B0933B2080914420909145201E
S11308B0A0914620B09147208093402090934120FE
S11308C0A0934220B09343206091672070916820E8
S11308D08091692090916A20C0900A20D0900B20CA
S11308E0E0900C20F0900D208CD39B01772324F40E
S11308F022273327261B370BB901330F880B990B9B
S1130900B3D3A701960199D48823D4F040916720EA
S1130910509168206091692070916A2080910A202A
S113092090910B20A0910C20B0910D2077FBB7F98A
S11309308093672090936820A0936920B0936A20E5
S113094060916720709168208091692090916A205D
S11309501CDDC0905D20D0905E20E0905F20F09080
S113096060200091792010917A2020917B20309191
S11309707C2040916720509168206091692070919B
S11309806A2080917D2090917E20A0917F20B0915B
S11309908020FF92EF92DF92CF923F932F931F9389
S11309A00F937F936F935F934F93BF93AF939F93F3
S11309B08F938CE190E29F938F930E947B0E6091C2
S11309C06D2070916E2080916F2090917020209105
S11309D07D2030917E2040917F20509180203ED216
S11309E060937D2070937E2080937F20909380205D
S11309F08DB79EB742968DBF9EBFFF91EF91BF9179
S1130A00AF919F918F917F916F915F914F913F91A2
S1130A102F911F910F91FF90EF90DF90CF90BF9097
S1130A20AF909F908F907F906F905F904F900F90BA
S1130A300BBE0F9009BE0F9008BE0F900FBE0F9013
S1130A401F9018951F920F920FB60F92112408B69B
S1130A500F9218BE09B60F9219BE0BB60F921BBEA9
S1130A602F933F934F935F936F937F938F939F93B2
S1130A70AF93BF93EF93FF938091490980FF18C010
S1130A806091542070915520809156209091572068
S1130A9020E030E040E85FE3E0D1609354207093BD
S1130AA0552080935620909357201092582023C0AD
S1130AB080915820811119C0609154207091552063
S1130AC0809156209091572020E030E040E85FE389
S1130AD0C5D16093542070935520809356209093F1
S1130AE0572081E08093582006C08091582081309F
S1130AF011F410925820FF91EF91BF91AF919F9103
S1130B008F917F916F915F914F913F912F910F90B2
S1130B100BBE0F9009BE0F9008BE0F900FBE0F9032
S1130B201F901895E0E5F0E08081826080838181E8
S1130B3081FFFDCF88ED84BF81E08093400008955C
S1130B409C01E0E4F8E08181818396819160968341
S1130B5026A337A38081866080830895E0E4F6E0CD
S1130B6088E0818394E092838583E0EAF8E08581DC
S1130B70836085838BE6868380EB878384818860AA
S1130B8084830895E0E4FBE083E181838FE396E0CE
S1130B9086A397A380818160808380E18093A106EE
S1130BA010A611A60895E0E6F6E08BE18283808921
S1130BB08360808B81898360818B83898360838B4D
S1130BC084898360848BE0E8F1E088E680838BE6A7
S1130BD08283808589608087828589608287E0E45A
S1130BE0F9E08081816080838381886683832FEF2D
S1130BF03FE126A337A3868182608683E0E4FAE09E
S1130C0080818160808383818A66838326A337A35E
S1130C10868182608683089585DF2FEF87E893E1DC
S1130C20215080409040E1F700C0000097DF8EE043
S1130C3090E28093892090938A208CE08093A1068F
S1130C40A1DFE0E0F6E080EE828380E1858B868B95
S1130C50878B309100206091022070910320809155
S1130C6004209091052021E0323009F020E0222375
S1130C7021F1C1E02AE939E949E95EE353D11816C3
S1130C800CF4C0E0CC23C9F080E090E0A0E2B1E431
S1130C908093302090933120A0933220B09333205E
S1130CA080E090E0A0E8BFE3809334209093352067
S1130CB0A0933620B093372018C080E090E0A8E4D9
S1130CC0B2E48093302090933120A0933220B093EB
S1130CD0332080E090E0A0E8BFE380933420909339
S1130CE03520A0933620B0933720209130203091C6
S1130CF03120409132205091332060E070E080E850
S1130D009FE317D160936D2070936E2080936F20C2
S1130D109093702060916D2070916E2080916F206F
S1130D209091702020E034E244EF57E48AD26ED1EF
S1130D3060936B2070936C2080916B2090916C2059
S1130D40FFDEC0E0D6E016C0888586FF06C060E0FE
S1130D5070E080E490E419DB0DC0888585FF06C04F
S1130D6060E070E080E490EC10DB04C060E070E0D0
S1130D70CB010BDB888588233CF7E0E6F6E080E8CE
S1130D80818380E48183809100208230D1F460915A
S1130D900120C0900220D0900320E0900420F09025
S1130DA0052070E080E090E05FD1A7019601C1D0FA
S1130DB06093812070938220809383209093842079
S1130DC010C080910020813061F480E090E0A0E2C6
S1130DD0B1E48093812090938220A0938320B093E8
S1130DE08420E1DE87E08093A20078940F2EF0E661
S1130DF0EF2EF6E0FF2EF02D00E016E06894BB2401
S1130E00B7F80F2EF8EDAF2EF02D0F2EF8E7CF2EFA
S1130E10D12CF02DF701B78260917D2070917E2056
S1130E2080917F2090918020209181203091822098
S1130E304091832050918420F801D085C1E0FDD1F8
S1130E4088230CF4C0E0CC2329F3DD231CF3F894AD
S1130E50A4BE81E0F6018183DDCF5058BB27AA27C9
S1130E600ED0A0C169D130F06ED120F031F49F3F93
S1130E7011F41EF45EC10EF4E095E7FB54C1E92FB2
S1130E80B3D180F3BA17620773078407950718F084
S1130E9071F49EF5CBC10EF4E0950B2EBA2FA02D64
S1130EA00B01B90190010C01CA01A0011124FF2713
S1130EB0591B99F0593F50F4503E68F11A16F0400E
S1130EC0A22F232F342F4427585FF3CF469537950D
S1130ED02795A795F0405395C9F77EF41F16BA0BD2
S1130EE0620B730B840BBAF09150A1F0FF0FBB1F80
S1130EF0661F771F881FC2F70EC0BA0F621F731FC9
S1130F00841F48F4879577956795B795F7959E3F25
S1130F1008F0B3CF9395880F08F09927EE0F9795B3
S1130F2087950895DCD008F481E0089514D1E39501
S1130F304AC10CD037C107D140F0FED030F021F4C3
S1130F405F3F19F0F0C0511172C1F3C04DD198F355
S1130F509923C9F35523B1F3951B550BBB27AA2736
S1130F6062177307840738F09F5F5F4F220F331FA8
S1130F70441FAA1FA9F333D00E2E3AF0E0E830D074
S1130F8091505040E695001CCAF729D0FE2F27D077
S1130F90660F771F881FBB1F261737074807AB0745
S1130FA0B0E809F0BB0B802DBF01FF2793585F4FBA
S1130FB02AF09E3F510568F0B6C039C15F3FECF39B
S1130FC0983EDCF3869577956795B795F7959F5F7F
S1130FD0C9F7880F911D9695879597F90895E1E0D3
S1130FE0660F771F881FBB1F621773078407BA0732
S1130FF020F0621B730B840BBA0BEE1F88F7E0958D
S1131000089504D06894B11112C10895F5D088F000
S11310109F5790F0B92F9927B751A0F0D1F0660FE0
S1131020771F881F991F1AF0BA95C9F712C0B130FB
S113103081F0FCD0B1E00895F9C0672F782F88279C
S1131040B85F39F0B93FCCF3869577956795B3953A
S1131050D9F73EF490958095709561957F4F8F4FA9
S11310609F4F0895E89409C097FB3EF490958095AE
S1131070709561957F4F8F4F9F4F9923A9F0F92F5A
S113108096E9BB279395F695879577956795B795D8
S1131090F111F8CFFAF4BB0F11F460FF1BC06F5FBE
S11310A07F4F8F4F9F4F16C0882311F096E911C0D0
S11310B0772321F09EE8872F762F05C0662371F0F1
S11310C096E8862F70E060E02AF09A95660F771F05
S11310D0881FDAF7880F9695879597F90895990FE1
S11310E00008550FAA0BE0E8FEEF16161706E807EE
S11310F0F907C0F012161306E407F50798F0621B0F
S1131100730B840B950B39F40A2661F0232B242BE3
S1131110252B21F408950A2609F4A140A6958FEF02
S1131120811D811D089597F99F6780E870E060E054
S113113008959FEF80EC089500240A94161617066C
S113114018060906089500240A94121613061406B4
S113115005060895EECF50D0E8F3E894E0E0BB270D
S11311609F57F0F02AED3FE049EC06C0EE0FBB0FAD
S1131170661F771F881F28F0B23A62077307840737
S113118028F0B25A620B730B840BE3959A9572F7AD
S1131190803830F49A95BB0F661F771F881FD2F7EB
S11311A09048BAC0092E0394000C11F4882352F01D
S11311B0BB0F40F4BF2B11F460FF04C06F5F7F4F7F
S11311C08F4F9F4F0895EF93E0FF06C0A2EA2AEDE8
S11311D03FE049EC5FEB53DEE5DF0F90039401FC45
S11311E09058ECEFF1E0A4C057FD9058440F551F00
S11311F059F05F3F71F04795880F97FB991F61F095
S11312009F3F79F087950895121613061406551F0B
S1131210F2CF4695F1DF08C0161617061806991F77
S1131220F1CF86957105610508940895E894BB276C
S113123066277727CB0197F9089551DF08F48FEFDC
S113124008950BD0AFCF78DF28F07DDF18F0952319
S113125009F069CF6ECF1124EACFC6DFA0F3959FC2
S1131260D1F3950F50E0551F629FF001729FBB2789
S1131270F00DB11D639FAA27F00DB11DAA1F649F35
S11312806627B00DA11D661F829F2227B00DA11DE8
S1131290621F739FB00DA11D621F839FA00D611D6E
S11312A0221F749F3327A00D611D231F849F600D8F
S11312B0211D822F762F6A2F11249F5750408AF0C8
S11312C0E1F088234AF0EE0FFF1FBB1F661F771F54
S11312D0881F91505040A9F79E3F510570F023CFCD
S11312E0A6CF5F3FECF3983EDCF386957795679540
S11312F0B795F795E7959F5FC1F7FE2B880F911D72
S11313009695879597F908959F9325DF0F9007FC8D
S1131310EE5F59CF9F3F31F0915020F48795779538
S11313206795B795880F911D9695879597F90895B8
S11313309F938F937F936F93FF93EF939B01AC01E4
S113134080DFEF91FF9105D02F913F914F915F91F5
S113135078CFDF93CF931F930F93FF92EF92DF9297
S11313607B018C01689405C0DA2EEF0176DFFE0163
S1131370E894A5912591359145915591AEF3EF01EE
S11313807EDDFE019701A801DA9479F7DF90EF90F2
S1131390FF900F911F91CF91DF9108952F923F926B
S11313A04F925F926F927F928F929F92AF92BF9271
S11313B0CF92DF92EF92FF920F931F93CF93DF931D
S11313C0CDB7DEB76097CDBFDEBF7C011B016A01DC
S11313D0FC0116821782838181FF2AC39E012F5F3D
S11313E03F4F3901F7019381F10193FD859193FFFB
S11313F081911F01882309F417C3853239F493FDC1
S1131400859193FF81911F01853231F4B70190E0FA
S113141036D456016501E6CF10E0512C912CFFE142
S1131420F915D8F08B3279F038F4803279F08332C0
S1131430A1F4F92DF0612EC08D3261F0803369F48E
S1131440292D21602DC0392D3260932E892D846081
S1131450982E2AC0E92DE86015C097FC2DC020ED18
S1131460280F2A3088F496FE06C03AE0139F200D18
S11314701124122F19C08AE0589E200D1124522ED7
S1131480E92DE0629E2E10C08E3231F496FCCCC25F
S1131490F92DF0649F2E08C08C3621F4292D206884
S11314A0922E02C0883641F4F10193FD859193FF99
S11314B081911F018111B3CF9BEB980F933020F4DE
S11314C0992D9061805E07C09BE9980F933008F0D6
S11314D059C1992D9F7E96FF16E09F73992E8536EC
S11314E019F49064992E08C0863621F4392F306897
S11314F0932E02C01111115097FE07C01C3350F4F3
S113150044244394410E27E00BC0183038F027E000
S113151017E005C027E09CE3492E02C0212F412C8F
S1131520560184E0A80EB11CF601608171818281AC
S11315309381042DA301B5D26C01F981FC87F0FFDE
S113154002C0F3FF06C091FC06C092FE06C000E292
S113155005C00DE203C00BE201C000E08C858C7075
S113156019F0011143C280C297FE10C04C0CFC85D7
S1131570F4FF04C08A81813309F44A94141474F585
S113158028E0241578F588E0482E2CC096FC2AC063
S1131590812F90E08C159D059CF03CEFC3163FEF26
S11315A0D30674F0892D8068982E0AC0E2E0F0E03A
S11315B0EC0FFD1FE10FF11D8081803319F41150F0
S11315C01111F4CF97FE0EC044244394410E812F91
S11315D090E0C816D9062CF41C1904C04424439482
S11315E001C010E097FE06C01C141D0434F4C601AB
S11315F0019605C085E090E002C081E090E0011111
S11316000196112331F0212F30E02F5F3F4F820FDD
S1131610931F252D30E08217930714F4581A01C044
S1131620512C892D897041F4552031F0B70180E2A5
S113163090E025D35A94F8CF002321F0B701802FEE
S113164090E01DD393FC08C0552031F0B70180E32E
S113165090E015D35A94F8CF97FE4AC04601D7FEBE
S113166002C0812C912CC60188199909F301E80F55
S1131670F91FED87FE879601241931092F87388BCE
S1131680012F10E01195019511093FEF8316930680
S113169021F4B7018EE290E0F2D2C814D9044CF0E0
S11316A08F8598898815990524F4ED85FE858181B7
S11316B001C080E3F1E08F1A91082D853E852F5FEC
S11316C03F4F2D873E878016910624F0B70190E0A6
S11316D0D6D2DBCFC814D90441F49A81963320F4CE
S11316E0953319F43C8534FF81E3B70190E048C099
S11316F08A81813319F09C859F7E9C87B70190E095
S1131700BED2111105C094FC16C085E690E015C048
S1131710B7018EE290E0B3D21E5F82E001E0080FD1
S1131720F301E80FF11D8081B70190E0A8D2802F6A
S11317300113F4CFE8CF85E490E0B701A0D2D7FC41
S113174006C0C114D10441F4EC85E4FF05C0D19472
S1131750C194D1088DE201C08BE2B70190E08FD231
S113176080E32AE0C216D1042CF08F5FFAE0CF1A8E
S1131770D108F7CFB70190E082D2B701C601C09675
S11317807ED249C1833631F0833779F0833509F04D
S113179052C01FC0560132E0A30EB11CF601808175
S11317A0898301E010E0630111C05601F2E0AF0E3D
S11317B0B11CF601C080D18096FE03C0612F70E099
S11317C002C06FEF7FEFC6014FD28C01F92DFF7776
S11317D013C0560122E0A20EB11CF601C080D180D4
S11317E096FE03C0612F70E002C06FEF7FEFC60169
S11317F030D28C01F92DF0689F2EF3FD18C0852D91
S113180090E00817190798F4B70180E290E037D206
S11318105A94F5CFF60197FC859197FE81916F015B
S1131820B70190E02CD251105A94015011090115BE
S1131830110581F7F0C0843611F0893659F5560147
S113184097FE09C024E0A20EB11CF60160817181EB
S1131850828193810AC0F2E0AF0EB11CF60160816F
S11318607181072E000C880B990BF92DFF769F2EA2
S113187097FF09C090958095709561957F4F8F4F24
S11318809F4FF0689F2E2AE030E0A30147D2C82E74
S1131890C6183EC0092D853721F40F7E2AE030E0BA
S11318A01DC0097F8F3691F018F4883559F0BCC0FB
S11318B0803719F0883711F0B7C0006104FF09C000
S11318C0046007C094FE08C0066006C028E030E04B
S11318D005C020E130E002C020E132E0560107FFFC
S11318E009C084E0A80EB11CF60160817181828177
S11318F0938108C0F2E0AF0EB11CF60160817181E2
S113190080E090E0A3010AD2C82EC6180F77902E6B
S113191096FE0BC0092D0E7FC11650F494FE0AC02A
S113192092FC08C0092D0E7E05C0DC2C092D03C0D5
S1131930DC2C01C0D12E04FF0DC0FE01EC0DF11D05
S11319408081803311F4097E09C002FF06C0D3945C
S1131950D39404C0802F867809F0D39403FD10C07B
S113196000FF06C01C2DD51478F4150D1D190CC0EC
S1131970D51450F4B70180E290E081D1D394F8CF2C
S1131980D51410F45D1801C0512C04FF0FC0B70129
S113199080E390E074D102FF16C001FD03C088E724
S11319A090E002C088E590E0B7010CC0802F8678F3
S11319B051F001FF02C08BE201C080E207FD8DE21D
S11319C0B70190E05CD1C11630F4B70180E390E038
S11319D056D11150F8CFCA94F301EC0DF11D80815A
S11319E0B70190E04CD1C110F6CF15C0F4E0F51565
S11319F050F584E0581A93FE1EC0011125C02C85B1
S1131A0023FF27C00AE112E0392D3071932EF8012B
S1131A108491811121C0552009F4FCCCB70180E2E6
S1131A2090E02DD15A94F7CFF7018681978123C096
S1131A308FEF9FEF20C0B70180E290E020D15A944D
S1131A405110F9CFDACF512CB701802F90E017D184
S1131A50D6CF0EE112E0D8CF91108052B70190E0BA
S1131A600ED10F5F1F4FD3CF23E0251510F483E071
S1131A70C1CF512CC4CF6096CDBFDEBFDF91CF91D3
S1131A801F910F91FF90EF90DF90CF90BF90AF9098
S1131A909F908F907F906F905F904F903F902F908A
S1131AA00895283008F027E03327DA01990F311D13
S1131AB087FD916000966105710539F432602E5FEF
S1131AC03D9330E32A95E1F708959F3F30F0803845
S1131AD07105610509F03C5F3C5F3D93913008F06E
S1131AE08068911DDF93CF931F930F93FF92EF9222
S1131AF0192F987F9695E92F96959695E90FFF27CC
S1131B00E458FD4F99273327EE24FF24A701E7016A
S1131B1005900894079428F4360FE71EF81E491F11
S1131B20511D660F771F881F991F0694A1F7059012
S1131B30079428F4E70EF81E491F561FC11D770F9E
S1131B40881F991F661F0694A1F70590079428F42F
S1131B50F80E491F561FC71FD11D880F991F661FF6
S1131B60771F0694A1F70590079420F4490F561F98
S1131B70C71FD81F990F661F771F881F0694A9F7E0
S1131B8084911095177041F0D695C7955795479550
S1131B90F794E7941A95C1F7E2E2F2E0689415909D
S1131BA0159135916591959105907FE27395E118B2
S1131BB0F10A430B560BC90BD009C0F7E10CF11E17
S1131BC0431F561FC91FD01D7EF4703311F48A952C
S1131BD0E6CFE894015030F0080F0AF4002702170A
S1131BE008F4202F2395022F7A3328F079E37D938C
S1131BF02A95E9F710C07D932A9589F6069497955E
S1131C006795379517951794E118F10A430B560B0E
S1131C10C90BD00998F023957E9173957A3308F017
S1131C2070E37C932013B8F77E9170617D9330F05C
S1131C30839571E37D9370E32A95E1F71124EF9086
S1131C40FF900F911F91CF91DF91992787FD909578
S1131C500895FC010590615070400110D8F78095FB
S1131C6090958E0F9F1F0895FC0161507040019064
S1131C700110D8F7809590958E0F9F1F08950F93AC
S1131C801F93CF93DF93FB01238121FD03C08FEFCB
S1131C909FEF2CC022FF16C04681578124813581D5
S1131CA04217530744F4A081B1819D012F5F3F4F38
S1131CB0208331838C93268137812F5F3F4F268386
S1131CC0378314C08B01EC01FB010084F185E02D06
S1131CD01995892BE1F6D80116968D919C91179749
S1131CE0019616968D939C931797CE01DF91CF9111
S1131CF01F910F910895CF93DF93CDB7DEB7AE0157
S1131D004A5F5F4FFA0161917191AF01809189201F
S1131D1090918A2043DBDF91CF910895FA01AA279D
S1131D20283051F1203181F1E8946F936E7F6E5F1A
S1131D307F4F8F4F9F4FAF4FB1E03ED0B4E03CD0C8
S1131D40670F781F891F9A1FA11D680F791F8A1FAB
S1131D50911DA11D6A0F711D811D911DA11D20D012
S1131D6009F468943F912AE0269F11243019305DCC
S1131D703193DEF6CF010895462F4770405D4193BD
S1131D80B3E00FD0C9F7F6CF462F4F70405D4A330A
S1131D9018F0495D31FD4052419302D0A9F7EACFD2
S1131DA0B4E0A6959795879577956795BA95C9F701
S1131DB000976105710508959B01AC010A2E0694F4
S1131DC05795479537952795BA95C9F7620F731FAD
S10F1DD0841F951FA01D0895F894FFCFF8
S1131DDC02059A99993E0000A04000004041000081
S1131DEC000200000000B401000000002566200978
S1131DFC20256620092025662009202566200A0056
S9030000FC
