:100000000C9437000C9498000C9498000C94980071
:100010000C9498000C9498000C9498000C94980000
:100020000C9498000C9498000C9498000C949800F0
:100030000C9498000C9498000C9498000C949800E0
:100040000C9498000C9498000C9498000C949800D0
:100050000C9498000C9498000C9498000C949800C0
:100060000C9498000C949800010001048000112465
:100070001FBECFEFD8E0DEBFCDBFE8E6F0E040E046
:1000800017C0B591A59135912591059107FD0CC03B
:1000900095918591EF01F92FE82F05900D92A21708
:1000A000B307D9F7FE0104C01D92A217B307E1F709
:1000B000ED36F40731F70E9461000C948D00F8943E
:0200C000FFCF70
:1000C20081E084B98091020190910301019690939D
:1000D2000301809302012091000130910101232B41
:1000E20059F0892B79F710920301109202011092B4
:1000F200010110920001E6CF2FE730E028173907FF
:1001020009F7109203011092020181E090E09093AE
:08011200010180930001D6CF2A
:10011A00EC010E949D000E949C00CE010E949E005C
:06012A00CE010E949A00C4
:040130000C9400002B
:040134000E945F00C6
:02013800089528
:02013A00089526
:02013C00089524
:00000001FF
